:100000000C9436060C946E060C946E060C946E06D8
:100010000C946E060C946E060C946E060C946E0690
:100020000C946E060C946E060C94BC250C949026D1
:100030000C9491200C946E060C946E060C946E0633
:100040000C946E060C946E060C946E060C946E0660
:100050000C946E060C9434210C946E060C946E066F
:100060000C946E060C946E060C946E060C946E0640
:100070000C946E060C946E060C946E060C946E0630
:100080000C946E060C946E060C946E060C946E0620
:100090000C946E060C946E060C946E060C946E0610
:1000A0000C946E060C946E060C946E060000000014
:1000B00000000000000000000000E01C0205022417
:1000C000040402A91EE0000000000000000000007F
:1000D0000000E010086810080403000000000000A1
:1000E000000206827C030000000000000000000007
:1000F00000000102040C1010202020283E1C2020AB
:100100003E0F111F00000000000000000000000072
:1001100000000000000000000000E01C02050224B6
:10012000040402A91EE0000000000000000000001E
:1001300000E09008186010080403000000000000B0
:1001400000020E827C03000000000000000000009E
:1001500000000102040C1010202020283E1C20204A
:100160003E0F111F00000000000000000000000012
:100170000080402010909090A0C080808070081473
:100180000890101008A47880000000000000000013
:10019000000708FC010000000080000001000000D2
:1001A0000000000818EA100F000000000000000026
:1001B000000000031C20203C0F111F030618202004
:1001C0003C0C121E010000000000000000000000B6
:1001D00000008040202020408000000000E0102827
:1001E000102020201048F000000000000000000057
:1001F000001F20F8020101010101010103000000BC
:100200000001001030D5201F000000000000000099
:100210000000003F20300C020509121E021C1408C9
:1002200010202C320100000000000000000000003F
:10023000E0100808C8B08080808080808040403C0A
:1002400014040890180408B040800000000000006A
:100250000102C4A4FC0000000080000000000000B7
:1002600000000080C858282A100F0000000000007D
:10027000000E09040404040203020101020204083E
:1002800010262B320405060000000000000000E0EC
:100290001010F0000000000000000080808078282E
:1002A00008102030081020408000000000000003EB
:1002B00004081011F9010101010101000000000012
:1002C0000000000110B05055201F00000000000089
:1002D000000000000001020C10202837021E202020
:1002E000180C141E010000000000000000C02010C7
:1002F000D030000000000000008080403C14040862
:1003000090180408B04080000000000000030408BA
:100310001011F901010101010100000000000000BD
:1003200080C848282A100F000000000000000000CC
:1003300000000001020C10202837020204081026D9
:100340002B320405060000000000000000E0101041
:10035000F00000000000000000808040402C1404E9
:100360000890180408B04080000000000003040852
:100370001011F9010101010101000000000000005D
:100380000080C048282A100F204A091000000000F1
:1003900000000001020C1020283702020408102679
:1003A0002B320405060000000000000000000000E1
:1003B0000000804040404080000000000000C0403D
:1003C000408000804080000000000000000000002D
:1003D0001E21F004020202020302020404040301CB
:1003E000000009018080AB04F8000000000000005C
:1003F0000000031C20203C0F111F0206182020388B
:1004000008101804040202010000000000000000AF
:100410000000804040408000000000000000E0A09C
:10042000204080C02040800000000000000000004C
:100430003E41F0040202020302020204040201002F
:1004400000000400404055827C00000000000000D5
:1004500000003F20300C020509121E04181008107D
:100460002028340602010100000000000000000006
:1004700000000000000000C0F0F8F8F8F0F6FBFB08
:100480003810000000000000000000000000000024
:100490000000000000000001070F1F1F0F0F1F1FAB
:1004A0000F06000000000000000000000000000037
:1004B00000000000000000BCBCBEBE00BEBEBFBF4E
:1004C000BFBF0000000000000000000000000000AE
:1004D0000000000000000007070F0F000F0F1F1F94
:1004E0001F1F0000000000000000000029001E0087
:1004F0001F002000210022002300240025002600E8
:1005000027002A002B0014001A000800150017000D
:100510001C0018000C00120013004C0039000400ED
:100520001600070009000A000B000D000E000F0066
:1005300033003400E1001D001B0006001900050017
:10054000110010003600370038002800E00001518B
:10055000E300E20001512C002C0001515000510039
:1005600052004F0035001E001F0020002100220015
:10057000230024002500260027002A0035001E0045
:100580001F00200021002200230024002500260057
:1005900027004C004C003A003B003C003D003E0070
:1005A0003F002D002E002F003000310001004000E0
:1005B00041004200430044004500320064004B000B
:1005C0004E000100010001000100010001000100D6
:1005D00001000100AB00AA00A900AE0000AE00AF10
:1005E00000DA028178D9F1DB20A4A62EAF00A0C0EA
:1005F00000A1C800AED580A81FD300408D142000F4
:1006000007087F0807003E5B4F5B3E003E6B4F6B69
:100610003E001C3E7C3E1C00183C7E3C18001C57D3
:100620007D571C001C5E7F5E1C0000183C180000FB
:10063000FFE7C3E7FF00001824180000FFE7DBE72F
:10064000FF0030483A060E00262979292600407F0F
:1006500005050700407F05253F005A3CE73C5A004E
:100660007F3E1C1C0800081C1C3E7F0014227F22B9
:1006700014005F5F005F5F0006097F017F00006676
:1006800089956A0060606060600094A2FFA2940097
:1006900008047E04080010207E20100008082A1C90
:1006A0000800081C2A0808001E10101010000C1E5C
:1006B0000C1E0C0030383E383000060E3E0E060090
:1006C00000000000000000005F00000000070007BD
:1006D0000000147F147F1400242A7F2A12002313A1
:1006E00008646200364956205000000807030000E5
:1006F000001C224100000041221C00002A1C7F1C1B
:100700002A0008083E080800008070300000080831
:1007100008080800000060600000201008040200C3
:100720003E5149453E0000427F4000007249494920
:1007300046002141494D33001814127F100027450F
:10074000454539003C4A494931004121110907001A
:10075000364949493600464949291E00000014001F
:10076000000000403400000000081422410014146E
:100770001414140000412214080002015909060053
:100780003E415D594E007C1211127C007F4949495F
:1007900036003E41414122007F4141413E007F49B8
:1007A000494941007F09090901003E414151730057
:1007B0007F0808087F0000417F4100002040413F42
:1007C00001007F08142241007F40404040007F022A
:1007D0001C027F007F0408107F003E4141413E0023
:1007E0007F09090906003E4151215E007F09192950
:1007F000460026494949320003017F0103003F407A
:1008000040403F001F2040201F003F4038403F0035
:100810006314081463000304780403006159494D0C
:100820004300007F414141000204081020000041C4
:1008300041417F000402010204004040404040006A
:100840000003070800002054547840007F284444E7
:100850003800384444442800384444287F00385441
:100860005454180000087E09020018A4A49C7800C3
:100870007F080404780000447D4000002040403D93
:1008800000007F102844000000417F4000007C04ED
:10089000780478007C080404780038444444380024
:1008A000FC182424180018242418FC007C080404D4
:1008B000080048545454240004043F4424003C409D
:1008C00040207C001C2040201C003C4030403C006C
:1008D0004428102844004C9090907C004464544C70
:1008E000440000083641000000007700000000418D
:1008F000360800000201020402003C2623263C00C8
:10090000000000000000404040F0F8F8FF38FFF819
:10091000F83FF8F8FF38FFF8F8F0404040000000DA
:1009200000000080C0C0C0800000C0C08000000087
:1009300080C0C000C0C0000080C0C0000000000037
:10094000C0C0C0C0C000C0C0000000000000000067
:100950000000000000000000000000000000000097
:100960000000000000000000000000000000000087
:10097000000000000000000000000000000000C0B7
:10098000F0F8FC3E1E06010000007F4141417F005F
:100990007F4141417F000080C0E07E5B4F5BFEC035
:1009A0000000C000DCD7DEDEDED7DC00C0000000C7
:1009B0000000000000000000000000000000000037
:1009C000000000000000494949FFFFFFFFE0DFBFD2
:1009D000BF00BFBFDFE0FFFFFFFF49494900000044
:1009E00000001F3F6060E0BF1F007F7F071E381EB2
:1009F000077F7F007F7F0E1F3B71600000000000BB
:100A00007F7F0C0C0C007E7E007F7E0303007F7EC8
:100A100003037E7E03037F7E000F3E703C063C7026
:100A20003E0F00327B49493F7E007F7E0303001E5C
:100A30003F69696F2600000000000000000000030D
:100A40000F1F3F3C7870600000007F4141417F00F4
:100A50007F4141417F00307B7F7830202030787F9C
:100A60003B0003000F7F0F0F0F7F0F0003000000FC
:100A70000000000000000000000000000000000076
:100A8000000000000000010101070F0F7F0F7F0F22
:100A90000F7E0F0F7F0F7F0F0F0701010100000076
:100AA0000000000000000001010000000000000044
:100AB0000000000000000000000000000000000036
:100AC0000000000000000000000000000000000026
:100AD0000000000000000000000000000000000016
:100AE0000000000000000000000000000000000006
:100AF00000000000000000000000000000000000F6
:100B000000000000000000000000000000000000E5
:100B100000000000000000000000000000000000D5
:100B200000000000000000000000000000000000C5
:100B300000000000000000000000000000000000B5
:100B400018036C0075006D0062006500720065009E
:100B50006C006900740065000000120374006A00F4
:100B60006500660066007200650065000000040311
:100B7000090409023B00020100A0FA090400000177
:100B80000301010009211101000122400007058134
:100B900003080001090401000103000000092111FC
:100BA000010001226D0007058203200001120100EF
:100BB00002000000087E0A7F0A0100010200010510
:100BC000010980A101850319012AB700150126B783
:100BD00000950175108100C0050C0901A101850473
:100BE00019012AA002150126A002950175108100A5
:100BF000C005010906A1018506050719E029E715C9
:100C00000025019508750181020507190029EF15D6
:100C100000250195F0750181020508190129059546
:100C20000575019102950175039101C00501090641
:100C3000A101050719E029E71500250195087501AF
:100C400081029501750881010507190029FF15002A
:100C500026FF0095067508810005081901290595EC
:100C60000575019102950175039101C011241FBE04
:100C7000CFEFDAE0DEBFCDBF04B603FE18C080912F
:100C8000650590916605A0916705B091680587306C
:100C9000904BA740B04B59F4109265051092660531
:100CA0001092670510926805E0E0F8E3099511E0FD
:100CB000A0E0B1E0E6EFF2E502C005900D92A83C9D
:100CC000B107D9F725E0A8ECB1E001C01D92A53627
:100CD000B207E1F70E94D1170C9463290C9400002D
:100CE0000895089581E008950E94241D90E0909356
:100CF000CB018093CA010E94401F8093370360E0BC
:100D000080E00E9466188091390360E470E080FF03
:100D10001AC08CE694E00E94631963E080E00E94B0
:100D20006618609105027091060280910702909109
:100D300008020E94D208882349F0813061F160E006
:100D400083E291E006C08CEA94E0E5CF60E088E1C0
:100D500091E00E94481965E080E00E94661860E01A
:100D600089E291E00E94481966E080E00E946618DE
:100D7000609101027091020280910302909104023D
:100D80000E94D208882359F0813009F47CC060E0C9
:100D90008AE391E007C060E08EE191E0DACF60E0A5
:100DA0008FE291E00E94481968E080E00E94661896
:100DB000609137036695617080E491E00E94481964
:100DC0006091D1017091D2018091D3019091D401B1
:100DD0000E941821693C71058105910508F43EC007
:100DE0000E94FD206093D1017093D2018093D301C2
:100DF0009093D4018091D501811104C080910001AC
:100E0000811145C06FE080E00E94661860E086E4D2
:100E100091E00E9448196CE080E00E94661881E031
:100E2000809300018091CC0190E001968170992718
:100E30008093CC0121E030E0281B390B40E6429F33
:100E4000C001439F900D11242091370321FF2DC035
:100E500060E670E084519D4F0E9463198091CA0141
:100E60009091CB0118161906F4F50E94A3190E945F
:100E7000FD206093CD017093CE018093CF019093BC
:100E8000D00180E0089560E085E391E08BCF6CE0D5
:100E900080E00E94661860E086E491E00E944819B4
:100EA0006DE080E00E946618BDCF2091D60122231C
:100EB00029F060E670E084559C4FCECF2091CA01A6
:100EC0003091CB0160E670E02B3031051CF4845585
:100ED0009F4FC2CF293231051CF484599E4FBCCF9D
:100EE000845D9D4FB9CF6091CD017091CE0180910D
:100EF000CF019091D0010E941821613C744D814036
:100F0000910508F4BECF0E94BF1ABBCFCF93FB015F
:100F10008C37910501F150F48A37910509F448C0E6
:100F2000B8F58C9709F45EC0C1E021C0803E910500
:100F300009F44EC0843E910509F44AC08D379105ED
:100F400099F7C28181E0CC23E9F00E94F6150E9456
:100F50007C0A89E109C0C28181E0CC2359F00E945A
:100F6000F6150E947C0A86E00E948109C0E08C2F61
:100F7000CF9108950E94F6150E94830A86E00E9490
:100F80000A0AF5CF0E94F6150E94830A89E1F7CF7D
:100F9000C28181E0CC2331F00E94F6150E947C0AC8
:100FA0008BE1E2CF0E94F6150E94830A8BE1E7CF26
:100FB000C28181E0CC2331F00E94F6150E947C0AA8
:100FC0008DE1D2CF0E94F6150E94830A8DE1D7CF22
:100FD000C281CC2321F081E08093D601C8CF10924A
:100FE000D601A2CFC281CC2331F081E08093D5011C
:100FF00010920001BCCF1092D50196CF81E00895E8
:101000000E948607089508950E9403080895A5E0A8
:10101000B0E0EDE0F8E00C94D42849835A83309195
:10102000D80189819A81311119C0662399F0222350
:1010300089F00E94BB0E182F682F89819A810E9427
:10104000970E69817A81812F0E943F152596E3E0F2
:101050000C94F0280E94A90E182FF3CF0E94BB0E0B
:1010600069817A81F1CFFC01262F40815181628113
:10107000738184810E940708089581E00895CF93C9
:10108000DF93EC0160E00E943308BE010E94040877
:10109000DF91CF9108950E947D1608950E948016D9
:1010A000089508950E94E60C0E9451082FEF84E3F2
:1010B0009CE0215080409040E1F700C0000008957E
:1010C0000E9452080E94582108950E9452080E94CE
:1010D0007C2108950F931F93CF93DF938C0161E0E0
:1010E0000E943308EC01F8018281882319F0CE01B7
:1010F0000E94511DB801CE010E940008811106C056
:1011000080E0DF91CF911F910F910895B801CE013A
:101110000E94D21C8823A1F3B801CE010E94071BB4
:10112000882371F3B801CE010E94441C882341F347
:10113000F8018281882361F0CB35FDE5DF0701F1FD
:1011400058F4C115ECE5DE0791F0CF3DDC4591F098
:10115000C8010E94FE07D5CFCD358DE5D80769F0CF
:1011600090F0C83ADD45A1F70E946508C9CF0E94FA
:101170006008C6CF0E948113F7CF0E94BB12E8CF50
:101180000E94C512E5CF0E94C912E2CF0E946D20D5
:101190000E9432090E94BF1A08950E9436090E94D7
:1011A00072200895CF92DF92EF92FF926C01EE24AD
:1011B000FF2420E0C114D104E104F10419F0C701B7
:1011C000B60120E1C72ED82EE92EFF24C114D10488
:1011D000E104F10419F0285FC701B6016B017C013D
:1011E00054E0F694E794D794C7945A95D1F7C11474
:1011F000D104E104F10419F02C5FC701B6016B01C1
:101200007C0142E0F694E794D794C7944A95D1F7CD
:10121000C114D104E104F10419F02E5FC701B60135
:101220009695879577956795672B682B692B09F0BD
:101230002F5F822FFF90EF90DF90CF900895089559
:101240000E941F09089581E008950E9423090895CE
:101250000895CF93C82F0E9420098C2F0E94250942
:10126000CF91089580E00E94290908950E94331FBC
:101270000E94290908950E94331F9091D701981761
:1012800021F08093D7010E9429090895ABE0B0E0D6
:10129000ECE4F9E00C94D5284F83588769877A8766
:1012A0008B8761110E9406121E821D8285E0FE015D
:1012B0003796DE01119601900D928A95E1F78C81A7
:1012C0009D81892B61F449815A816B817C818D815B
:1012D0009E810E942F112B96E2E00C94F1288981C7
:1012E0009A8189238F3F79F3CE0101960E943D08B0
:1012F0008111E9CFF0CFFC01808191810E94F50E30
:101300000895CF93C82F8823C9F08238C9F40E946A
:10131000331F81FD13C089E30E94BE110E94271272
:101320002FEF81EE94E0215080409040E1F700C023
:10133000000089E30E94C6110E942712CF910895F0
:101340008338A1F40E94331F80FDF8CF83E50E940B
:10135000BE110E9427122FEF81EE94E021508040B1
:101360009040E1F700C0000083E5E4CF8438A1F4A9
:101370000E94331F82FDE2CF87E40E94BE110E94CB
:1013800027122FEF81EE94E0215080409040E1F74A
:1013900000C0000087E4CECF8CEF8C0F813A90F430
:1013A0006C2F80910101909102010E949D1F882362
:1013B00029F08C2F0E94C6110E9427128C2F0E94A8
:1013C000BE11BACF80E28C0F883048F4C77081E03C
:1013D00001C0880FCA95EAF70E94E911ADCFEBE58D
:1013E000EC0FE33040F4F0E0E658FE4F808190E0EF
:1013F0000E945D1FA3CFC85AC73108F09FCFEC2FC2
:10140000F0E0EE0FFF1FE45BFE4F808191810E94B0
:10141000731F94CF882309F44DC0823879F40E9459
:10142000331F81FF47C089E30E94BE110E9427122B
:1014300089E30E94C6110E9427120895833859F447
:101440000E94331F80FF36C083E50E94BE110E94B8
:10145000271283E5EECF843859F40E94331F82FFB0
:1014600029C087E40E94BE110E94271287E4E1CFC1
:101470009CEF980F913AE8F290E2980F983050F470
:10148000877091E001C0990F8A95EAF7892F0E9431
:10149000EF11D1CF9BE5980F933028F490E080E0D6
:1014A0000E945D1F0895885A873120F490E080E003
:1014B0000E94731F08951F93CF93DF93182FEB01A2
:1014C0000E948109209739F4812F0E940A0ADF9136
:1014D000CF911F9108958FE99FE00197F1F700C028
:1014E00000002197EFCF70E060E0893311F460E5F0
:1014F00070E00E945B0A0895882321F00E94E911A0
:101500000E9427120895882321F00E94EF110E9463
:1015100027120895B0E0A0E0E0E9FAE00C94CE28AC
:101520006C01D62FC72FFC011281F580F2949FE049
:10153000F9220E94DF11E82E8823B9F0E12E112351
:10154000A1F08C2F807F803421F080E28D0F8830D5
:10155000D0F08091390382FF16C082E00E948A1287
:101560000E94DF1191E0E82EE926BC2EB2948FE0B4
:10157000B822FBE0FB1508F468C0EB2DF0E0EB5956
:10158000F64D0C94AC28E12CF0CF0C2F0F70C07FDF
:1015900011F00295007F112399F0002359F080E2A9
:1015A0008D0F883010F0D11107C0802F0E94E911F3
:1015B0000E9427128D2F41C0802F0E94F911F8CF71
:1015C0008D2F0E940A0A002309F43FC080E28D0F8C
:1015D000883010F0D11104C0802F0E94EF1103C099
:1015E000802F0E94FF110E9427122FC00C2F0F7016
:1015F000C07FC03211F00295007FDD2381F0D13031
:1016000009F463C0112309F46DC0FF2009F463C01D
:10161000F601858180FFCECF8F7085835CC080917D
:10162000390382FD33C0112359F0002329F0802FA4
:101630000E94E9110E94271280E00E94810905C0E2
:1016400080E00E940A0A0111C7CFEB2DE850FF0B82
:10165000349720F40E94331F0E942909EE2089F05C
:101660000E94DB1180FD0DC0F60112820E94D5118F
:101670000E949F0DC6010E94AA0C0E94D5110E94D3
:10168000C10DCDB7DEB7E9E00C94EA28112389F04B
:10169000F11006C00E940912802B0E947C0AD5CF4F
:1016A00021E0F212F7CF0E940912802B0E94101243
:1016B000CCCFF11006C00E941D12802F0E94830A19
:1016C000C4CF31E0F31609F2F6CF112331F085E0F3
:1016D0008F1508F4BACF802FE0CF94E09F1508F45F
:1016E000B4CFEBCFFF2049F3D93349F4FFEF27EE16
:1016F00033E0F15020403040E1F700C000008D2F72
:101700000E940A0AA2CF8C2F86958695837069F075
:10171000813009F09ACF8D2F9C2F9370111102C048
:1017200090E080E00E94731F90CF8D2F9C2F9370CC
:10173000111102C090E080E00E945D1F86CF8C2FC7
:10174000837009F041C0111180CF4D2F429546950D
:101750004770440F440F0D2F0F7010E030E020E071
:10176000042E04C0000F111F221F331F0A94D2F74A
:1017700060E070E0CB01D4FF0FC06FE070E080E06C
:1017800090E004C0660F771F881F991F4A95D2F713
:101790006095709580959095C695C695C370602BA1
:1017A000712B822B932BC23049F058F4C13019F0C1
:1017B0000E944A0D4ACF0E94370D47CF0E945D0D0F
:1017C00044CF0E94340D41CF8695112311F08C2F08
:1017D0008170882309F439CF4D2F42954695477083
:1017E000440F440F0D2F0F7010E030E020E0042E66
:1017F00004C0000F111F221F331F0A94D2F760E0AC
:1018000070E0CB01D4FF0FC06FE070E080E090E0AB
:1018100004C0660F771F881F991F4A95D2F76095FD
:10182000709580959095C695C695C370602B712B69
:10183000822B932BC23049F058F4C13019F00E942A
:101840001A0E03CF0E94070E00CF0E942D0EFDCE70
:101850000E94760DFACECF70112329F08C2F0E94B2
:101860009F0D8D2F1ACF8D2F0E94830A8C2F0E94DF
:10187000C10DEBCED23F51F160F4D03FB9F0D13F72
:1018800081F0112309F449C0F11094CE8C2F8F718F
:1018900021C0D33F11F1D43FA1F78091390382FDDC
:1018A00026C08C2F8F71112311F314C0112349F01E
:1018B00084E08F1508F4C9CE8C2F8F710E94E50D3E
:1018C000C4CE95E09F1508F4C0CEF6CF8C2F8F7153
:1018D0001111CDCF0E949F0DB8CE112329F08C2F6E
:1018E0008F710E94890DB1CE0E94830DAECE11235F
:1018F00049F0CF718C2F0E949F0D63E08C2F0E94C6
:101900006C12A3CE81E00E948A12E1E0EF1508F08C
:101910009CCE82E00E948A1298CEF110E5CE8C2FE8
:101920008F71A5CF0F931F93CF93DF93EC01688145
:1019300079818A810E94000F8C010E94400E0E94D2
:10194000330DB801CE010E948A0ADF91CF911F9119
:101950000F910895CF93DF93EC018B819C81892BAC
:1019600029F08881998189238F3F51F4DF91CF91AC
:101970000895CE010E94920CCE010E943F08F6CF3E
:10198000CE010E946A088111F4CF0E94DF118823E2
:1019900069F38A81882351F38091390382FFE6CF6E
:1019A00082E00E948A12E2CF90E080E00E945D1FF8
:1019B00090E080E00E94731F0E9406120E9427128E
:1019C00008950E94CE110E94D40C08950E94F61131
:1019D0000E94E10C089592959F70963091F058F412
:1019E000925F9F70923058F4803F19F030F4883E37
:1019F00030F481E008959A5FF4CF843FD1F380E022
:101A00000895883EB0F3813FD1F7F3CFFC01808188
:101A100091810E94F50E0E94EB0C0895A5E0B0E0C4
:101A2000E4E1FDE00C94D5282596E2E00C94F12841
:101A3000A6E0B0E0EEE1FDE00C94D5282696E2E0C9
:101A40000C94F12808950E94220D08950E94230D00
:101A50006093050270930602809307029093080238
:101A60000E94D40C089508950E94260D08950F93A6
:101A70001F930091050210910602209107023091F8
:101A80000802602B712B822B932B0E94260D1F9135
:101A90000F9108950F931F93009105021091060274
:101AA000209107023091080260237123822393233F
:101AB0000E94260D1F910F9108950F931F9300917F
:101AC000050210910602209107023091080260275A
:101AD0007127822793270E94260D1F910F91089549
:101AE0000E94220D08950E94700D08950E94730DAA
:101AF00060930102709302028093030290930402A8
:101B00000E94D40C089560E070E0CB010E94760D35
:101B100008950F931F9341E050E060E070E08A0168
:101B20009B0104C0000F111F221F331F8A95D2F79B
:101B3000C901B8010E94760D1F910F9108950F936E
:101B40001F9341E050E060E070E004C0440F551F77
:101B5000661F771F8A95D2F7809101029091020249
:101B6000A0910302B09104028A019B01082B192B5A
:101B70002A2B3B2BC901B8010E94760D1F910F91B2
:101B800008950F931F9341E050E060E070E004C0BF
:101B9000440F551F661F771F8A95D2F7CB01BA01F4
:101BA00060957095809590950091010210910202C8
:101BB0002091030230910402602371238223932336
:101BC0000E94760D1F910F9108950F931F9341E08E
:101BD00050E060E070E004C0440F551F661F771F9F
:101BE0008A95D2F78091010290910202A09103029E
:101BF000B09104028A019B01082719272A273B2755
:101C0000C901B8010E94760D1F910F9108950F939D
:101C10001F93009101021091020220910302309162
:101C20000402602B712B822B932B0E94760D1F9147
:101C30000F9108950F931F930091010210910202DA
:101C400020910302309104026023712382239323A5
:101C50000E94760D1F910F9108950F931F9300918D
:101C600001021091020220910302309104026027C8
:101C70007127822793270E94760D1F910F91089557
:101C80000895262F277091E001C0990F2A95EAF751
:101C900023E0769567952A95E1F725E0269FF001E8
:101CA000279FF00D1124E40FF51F50E040E0682F4E
:101CB00070E08191DF0111979B01042E02C03695DF
:101CC00027950A94E2F721702195282729232827B0
:101CD0002C934F5F5F4F4530510559F70895A82F5A
:101CE000A77023E0969587952A95E1F725E0289F30
:101CF000F001299FF00D1124E60FF71F50E040E09E
:101D000080E0219130E00A2E02C0369527950A9492
:101D1000E2F721703327042E01C0220F0A94EAF75C
:101D2000822B4F5F5F4F4530510559F70895262F9D
:101D3000953070F48C3060F4682F70E08CE0989FE0
:101D4000600D711D112449ED51E0822F0E94410E5A
:101D50000895292F953068F48C3058F490E069ED9F
:101D600071E03CE0239F800D911D11240E946F0EB5
:101D7000089580E00895B0E0A0E0E1ECFEE00C946E
:101D8000CE288C01C0900102D0900202E0900302A4
:101D9000F09004028091050290910602A091070242
:101DA000B0910802C82AD92AEA2AFB2ACFE1D0E05A
:101DB000BC2ED701C6010C2E04C0B695A7959795E9
:101DC00087950A94D2F780FD09C0219788F7B12C36
:101DD0008B2DCDB7DEB7E9E00C94EA28B8018C2F43
:101DE0000E945A15019789F3F3CFCF93DF93EC014B
:101DF0000E94BB0EBE010E945A15DF91CF9108953B
:101E00001F93CF93DF93EB019091D801992339F081
:101E1000CB010E94F50EDF91CF911F910895882389
:101E200069F0CB010E94BB0E182F682FCE010E94D3
:101E3000970EBE01812F0E945A15EDCFCB010E9453
:101E4000A90E182FF6CF1F93CF93DF93C0910902ED
:101E500016E080910A028C1304C0DF91CF911F918C
:101E60000895D0E01C9FF0011D9FF00D1124E55F47
:101E7000FD4F4081518162817381848195810E94EF
:101E8000180D2196C770E5CF40913B0250913C025E
:101E900060913D0270913E0280913F02909140021C
:101EA0000E94180D08951F93CF93DF9380914002F5
:101EB000807F09F049C080913D02882309F444C025
:101EC00080910902C0910A0260913B0270913C022C
:101ED000A0913E02B0913F02D62FD72316E0C8173B
:101EE00099F190E0109711F0DF3F19F40196877097
:101EF000F6CF189F9001199F300D1124F901E55F6D
:101F0000FD4F41814713F2CF40814613EFCF42810D
:101F10004111ECCF438154814A1B5B0B483C510576
:101F200028F7809140028F70806180934002F90110
:101F3000E05FFD4F80818F70806180838BE392E052
:101F40000E94AA0C0E94230FDF91CF911F91089548
:101F5000A1E1B0E0EEEAFFE00C94CD288C0185E031
:101F6000F801DE011D9601900D928A95E1F7F801C6
:101F7000E2808BE3C82E82E0D82E60913E02709101
:101F80003F026115710509F44EC190913B02209109
:101F90003C02892F82238F3F09F445C14081518142
:101FA000A380B480F0903D02F501E61BF70BFF2003
:101FB00009F4EAC080914002382F307FE83CF105F7
:101FC00008F0A3C031116DC0FE2C251316C0941368
:101FD00014C0E11012C08F708061809340020E9493
:101FE000440FC6010E94AA0C80914002F80185832B
:101FF0008F2D6196EAE00C94E928A114B10429F030
:10200000842F85238F3F09F027C180E0F82FF170DE
:10201000DF2E80FF3CC08091090220910A0236E049
:10202000821315C04D875E878D859E850E94F50EB3
:10203000292F22952F702230F0F0243018F59F7050
:10204000F1F0F8019581907FD1F4D12C1EC090E081
:10205000389FF001399FF00D1124E55FFD4F61813C
:10206000651306C06081641303C06281E6120FC06D
:1020700001968770D5CF9F7011F0882331F3805E71
:10208000883018F3C8010E94AA0CFD2CB1CFEE20B5
:1020900009F4AECF80914002816080934002F12C20
:1020A000A7CF251306C0941304C0F801EE2009F44D
:1020B00087C0C8010E94060D882319F1EE2009F19E
:1020C00080914002803270F020913B0230913C02BE
:1020D00038872F831986BB86AA868C87CE01079600
:1020E0000E94AA0C86E0F801ABE3B2E001900D92E9
:1020F0008A95E1F70E94530F0E94440FFF24F39446
:1021000077CFC8010E94AA0CF9CF311113C07A2DE4
:10211000B98AA88A6E2D89890E940E0D8BE392E000
:102120000E94AA0C86E0F60111928A95E9F70E94B6
:10213000440FB5CF25130FC094130DC0E1100BC091
:10214000F8018583C8010E94AA0C86E0F60111926D
:102150008A95E9F74DCFC8010E94060D882389F2C0
:10216000EE2079F280914002803208F4BBCF2091BA
:102170003B0230913C023A8329831B82BD82AC82B0
:102180008E83CE010196ACCFE83CF10508F03EC04D
:10219000FE2CEE2009F4B5CF25132AC0941328C0D5
:1021A0008091400280FD1BC0982F907FC1F0F80104
:1021B0008583903F31F0982F907F905F8F70892BAF
:1021C0008583C8010E94AA0C86E0F801ABE3B2E067
:1021D00001900D928A95E1F70E94440F09CF86E0A5
:1021E000F801ABE3B2E001900D928A95E1F700CFE0
:1021F000C8010E94060D811175CF80914002816057
:1022000080934002C8010E94AA0CF2CE7A2DB98AAE
:10221000A88A6E2D89890E940E0D86E0F601119222
:102220008A95E9F7D9CFEE2009F46BCFC8010E9457
:10223000060DF82E882309F464CF86E0F801ABE39D
:10224000B2E001900D928A95E1F78BE392E00E9453
:102250007B090E94530FC0CF81E08E25D7CEACE022
:10226000B0E0E5E3F1E10C94D4284F835887698707
:102270007A878B879C87CE0107960E94A80F8823B8
:1022800069F08A859B85892B39F04F815885842F89
:1022900085238F3F09F06BC016E05FC086E0FE012A
:1022A0003796DE01119601900D928A95E1F78A85A5
:1022B0009B85892B89F38F81988589238F3F61F3D3
:1022C00020910A0230E0C901019687709927409158
:1022D00009024817190671F40E94E60C10920A02CE
:1022E0001092090286E0EBE3F2E0DF011D928A958D
:1022F000E9F7D2CF96E0929FD001939FB00D1124C1
:10230000A55FBD4FFE01319601900D929A95E1F7C0
:1023100080930A020E94230FBFCF819FC001112426
:10232000855F9D4F0E94A80F8823E9F0E091090284
:102330001E9FF0011124E55FFD4F408151816281B4
:102340007381848195810E94180D8091090290E02B
:1023500001968770992780930902809109029091D4
:102360000A028913DACF2C96E3E00C94F0286985F1
:102370007A858B859C850E94180D8ECF682F809161
:102380000101909102010E941D200895682F809103
:102390000101909102010E942B200895809101017A
:1023A000909102010E9439200895809161028595E3
:1023B0008595859508958091610287700895909123
:1023C0006102977081E009F480E0089580918402B1
:1023D000089590918402892B8093840208958095BA
:1023E000909184029823909384020895109284021D
:1023F000089590918302892B80938302089580959C
:1024000090918302982390938302089510928302FF
:10241000089580916202089508950E940C12089513
:102420009091390392FF08C090916202981721F0B1
:10243000809362020E940D120895809162028823A7
:1024400029F01092620280E00E940D120895CF934D
:10245000DF93E0910101F091020180918402808379
:10246000E0910101F0910201808190918302892B1A
:10247000808390916202992381F0E0910101F091B3
:1024800002018081892B808380910101909102015A
:102490000E94891F81110E941D12C0910101D091DB
:1024A000020140E250E061E472E0CE010E94142992
:1024B000892B59F080E2FE01A1E4B2E001900D9277
:1024C0008A95E1F7CE010E94431FDF91CF910895D5
:1024D00008950E94681208959091390392FF11C0E7
:1024E00098E0899F90011124622B609361020E9401
:1024F0009F0D809161028595859585950E94691251
:1025000008950E949F0D08951092610280E00E943C
:1025100069120895909161028095892380936102E8
:10252000282F277091F4282F082E000C330B9217B8
:10253000130659F09091390392FF07C08595859550
:1025400085950E94C10D0E948412089590913903CF
:1025500092FB222720F9281769F080FB92F99093CB
:10256000390380913803909139030E94F71282E079
:102570000E948A1208958091390382FB882780F98E
:1025800091E089270E94A612089581E00E94A61278
:10259000089580E00E94A61208956FEF7FEF90E00B
:1025A00080E00E944D29089590E080E00E94292952
:1025B00021E0883E9E4F09F020E0822F089582E0BE
:1025C00090E00E942129089583E090E00E94212953
:1025D0000895CF9384E090E00E942129C82F82E2E1
:1025E00090E00E942129982F8C2FCF910895CF93AE
:1025F000C92F682F84E090E00E942F296C2F82E27F
:1026000090E00E942F29CF910895AB01BC018FE08B
:1026100090E00E9441290895AB01BC0183E190E064
:102620000E944129089560E070E0CB010E940C13E4
:10263000089560E070E0CB010E9405130E9413131F
:10264000089568EE7EEF90E080E00E944D2960E002
:1026500082E090E00E942F2960E083E090E00E94F9
:102660002F29109205021092060210920702109272
:10267000080260E084E090E00E942F2964E082E29A
:1026800090E00E942F2960E085E090E00E942F29D1
:1026900060E086E090E00E942F296FEF87E090E0F5
:1026A0000E942F2940E050E0BA0188E090E00E94AB
:1026B000412960E08DE090E00E942F2940E050E049
:1026C000BA0188E190E00E94412960E087E190E052
:1026D0000E942F2940E050E0BA018CE190E00E9476
:1026E000412970E060E080E290E00E944D2940E0E6
:1026F00050E0BA0188E190E00E9441290E9419133C
:1027000008950E9421130895682F8EE090E00E94A2
:102710002F2908950E94FD206093930270939402E4
:10272000809395029093960260938F02709390022B
:1027300080939102909392020895089508950E94C3
:102740009E13089508950E94A213089589E396E1C7
:102750000E94291F0E949D130E949F13089581E0EB
:1027600008950E94AF130895089508950E94B41328
:102770000E94B51308950E9458160E9428090895D2
:102780000E94E8200E9438170E94BB1380E00E943C
:102790001E180E94A3130895AAE0B0E0E2EDF3E151
:1027A0000C94CA280E944E17A82E81110E948A13E9
:1027B00055E8852E52E0952E10E000E0702E802F17
:1027C0000E9483166C01F401E190F1904F01E8162C
:1027D000F90609F444C08091970281FD0E948C168D
:1027E000C7018C259D25B12CEE24E394F12C9C018E
:1027F0002E213F21232B69F10E94B1138823B1F0D0
:10280000BE827F82CE20DF2081E0C114D10409F492
:1028100080E088870E94F1208160782F9A878987DD
:102820004E815F8168858A850E944609000F111FCD
:10283000F801EB57FD4F80819181E826F926F1825E
:10284000E08281E0A11001C080E02A96EDE00C94C6
:10285000E628B394EE0CFF1CFCE0BF12C8CF0F5F5C
:102860001F4F0530110509F0A9CF8FEF89838A83A7
:102870001B820E94F1208160782F9D838C83498187
:102880005A816B818D810E944609DBCFCF930E94D4
:10289000CC13C82F0E94661D0E94DD1AC1110E9430
:1028A000A3190E943B09CF910895CF93DF930E9413
:1028B0005F15EC01811522E59207E8F5811531E5F8
:1028C000930708F0ACC0883E910510F5803E910555
:1028D00070F5883A910570F4853A910508F078C052
:1028E0008130910521F1009711F1049700F5D0E0B6
:1028F000C0E01DC08F3B9105D0F7C85AD0E0CC0F87
:10290000DD1FC358DE4F0990D881C02DD4640FC09D
:10291000811540E5940708F066C0C11580E4D8072A
:1029200008F05EC0CE019A9581159F4100F7CE0157
:10293000DF91CF910895811536E5930718F581153C
:1029400045E5940708F083C0C11584E5D80708F071
:1029500079C09C2F969596959E0123703327C115BB
:10296000D34508F461C0C1E0D0E002C0CC0FDD1F48
:102970002A95E2F730E2939FC0011124C82BD92B8E
:10298000DA68D5CFC1158AE5D80778F4C11599E57D
:10299000D90708F066C0C11528E5D20708F4A7CF0B
:1029A000DC2FCC27C06FD06AC2CFCE0190568115E4
:1029B000904208F09CCF8D2F8F710E94F61590E009
:1029C000982F882788279F719C012C2BE90147C0ED
:1029D000C55AD0E0C555DE4FC881D0E0D064A7CF3E
:1029E000DF70D06AA4CFE4E096958795EA95E1F789
:1029F00083702C2F26952695237040E2249F90010A
:102A00001124382B8C2F8370C1E0D0E002C0CC0F92
:102A1000DD1F8A95E2F7C22BD32BDC6888CFD82F35
:102A2000CC27C16FD06A83CFC1E0D0E002C0CC0F09
:102A3000DD1F2A95E2F720E2929FC0011124C82BE6
:102A4000D92BEBCFDC2FCC27C46FD06A70CF0E947C
:102A5000F615C82FD0E0DC2FCC27CC27DF71D06251
:102A600066CF8C2F8F700E94F61534E0D695C795EF
:102A70003A95E1F7CF709C2FEC01D06958CF972F92
:102A80007530A8F46C3098F470E02CE0929F600DE3
:102A9000711D1124FB019CE3899FE00DF11D1124A0
:102AA000EE0FFF1FE451FB4F85919491089580E054
:102AB00090E008950E943F150E94551408958238B1
:102AC0009105B1F1B0F48133910509F475C048F472
:102AD0008932910509F469C08A32910509F473C0FD
:102AE00008958533910509F459C08933910501F1A1
:102AF0000895833E9105A9F138F4803E9105F9F0DF
:102B0000823E910549F10895863E9105A9F1873EDF
:102B10009105C9F1843E910519F52091390321FFF2
:102B20001FC08091380384FD14C087EE90E00895A3
:102B3000209138032370A1F080EE90E00895209159
:102B4000380320FD47C03091390330FF09C024FF0E
:102B500044C090E080E004C02091380322FDF7CF0C
:102B600008952091380322FD3BC03091390330FD98
:102B7000E3CF24FFF5CFEDCF2091380323FFF0CF33
:102B800024FDE7CFD2CF2091380323FD2CC0309114
:102B9000390331FFEECF84EE90E0089520913803A1
:102BA00025FFDECF89E290E008952091380325FFCC
:102BB000D7CF85E390E008952091380326FFD0CF4A
:102BC0008AE290E008952091380326FFC9CF81E37F
:102BD00090E0089589E390E0089583EE90E00895F1
:102BE00082EE90E0089586EE90E00895909138038B
:102BF00092FF06C0282F28712830F9F4877F84605F
:102C000093FF06C0282F28712831F1F4877E846154
:102C10002091390320FF06C0382F38713830D9F49D
:102C2000877F816021FF06C0282F28712831D1F4C9
:102C3000877E816194FD877E0895282F247124303A
:102C4000F9F68B7F8860DCCF282F2471243101F7BF
:102C50008B7E8861DDCF382F3171313019F78E7F4F
:102C60008860E0CF282F2171213121F78E7E886185
:102C7000E1CF80E008950E94CD1208950E944E1782
:102C80002FEF86E791E0215080409040E1F700C0AF
:102C900000000E944E1780E00E94831680FF04C04F
:102CA0000E943B160E94582108950E943E160895E6
:102CB0000E94D412811102C00E9481130E94DF126F
:102CC000809397020E94E91290933903809338030E
:102CD0000E9455160E94E412682F70E090E080E098
:102CE0000E94340D609101027091020280910302F2
:102CF000909104020E94730D08950E947006089539
:102D00000E9471060895E82FF0E0EE0FFF1FEC5BC4
:102D1000FC4F808191810895089580EA8A95F1F7AA
:102D2000089500C008950E948D160895F894E82F24
:102D3000E295EF70F0E031A1282F2F7081E090E054
:102D400001C0880F2A95EAF7982F9095932391A3B5
:102D500092A1892B82A378940895CF93DF93CAEB35
:102D6000D1E089918F3F11F00E94961681E0CF3B10
:102D7000D807B9F7CEEAD1E089918F3F11F00E94D0
:102D8000961681E0CA3BD807B9F7DF91CF91089535
:102D9000AF92BF92DF92EF92FF920F931F93CF9368
:102DA000DF938C01D62EC62FD0E0CE0186549E4FE5
:102DB0007C01FC0120812F3F09F44DC0F894E22FE3
:102DC000E295EF70F0E031A12F7081E090E001C05A
:102DD000880F2A95EAF7932F982B91A392A18095BB
:102DE000892382A378940E949116EEEAF1E04AEBDF
:102DF00051E021E030E0B12CA12C61916F3FA9F1AD
:102E0000A62FA295AF70B0E090968C9190E06F7075
:102E100002C0959587956A95E2F780FD26C0C901A5
:102E2000A82AB92A220F331F4E175F0731F7F7017F
:102E300080818F3F11F00E94961661E0A114B104C9
:102E400009F460E08D2D0E949316CC0FDD1FC00F9A
:102E5000D11FB982A882DF91CF911F910F91FF906E
:102E6000EF90DF90BF90AF90089590E080E0D8CFD2
:102E70000E94AD168AE0E4E4F3E0DF01982F1D9292
:102E80009A95E9F7EAE3F3E0DF011D928A95E9F705
:102E900085E00E948A170E944B080895AAE0B0E0DE
:102EA000E4E5F7E10C94D2288E010F5F1F4F8AE012
:102EB000F80111928A95E9F7F12C6F2DC8010E9453
:102EC000C816F394F5E0FF12F8CF4AE050E0B801DD
:102ED0008AE393E00E941429FF24F394009709F4F5
:102EE000F12C892B41F08AE0F801AAE3B3E00190CC
:102EF0000D928A95E1F72F2D45E064E473E08AE3B3
:102F000093E00E948B170E944E088F2D2A96E5E0D1
:102F10000C94EE280895FF920F931F93CF93DF93A5
:102F2000F82E092F162FD72FC42F222349F081E026
:102F300080939A020E94F1209093990280939802C4
:102F400080919A028823A1F0809198029091990231
:102F50000E940921059760F0EF2DF02FA12FBD2FC2
:102F600090E080E0D0E08C179D073CF010929A0230
:102F7000CDB7DEB7E5E00C94EE28219131912D9389
:102F80003D930196F0CF0E9412230E94C0130E942D
:102F90001F2308950E9424230E9446140E943E236A
:102FA00008950E948A200E94F8220E94A6130E947F
:102FB000C3170E94CA170E94B613FBCFB0E0A0E06F
:102FC000E4EEF7E10C94CF286C017B0164E670E03D
:102FD00088E70E94401EEC0197FD12C010E000E05F
:102FE000F601E00FF11F849164E670E00E94AE1ECE
:102FF000EC01892B29F40F5F1F4F0E151F0581F778
:103000000E94251FCE01CDB7DEB7E8E00C94EB2877
:103010000895EEE4F3E080E092E0DF019C011D9270
:1030200021503040E1F7F0935305E09352058FEFC4
:103030009FEF9093C7028093C60208950E940818DC
:103040000E9472068093C20280FD0FC080E88093C8
:10305000C1020E943A1E6DE070E083EF95E00E948D
:10306000DE17892B21F080E0089580E2F0CF809177
:10307000C20263E070E081FD26C080EF95E00E940F
:10308000DE17892B81F76DE070E080EE95E00E94FD
:10309000DE17892B41F70E94FD2060547B428E4F42
:1030A0009F4F60934E0570934F058093500590930A
:1030B00051050E94091881E08093C5028093C402E3
:1030C0001092C30208958DEE95E0D9CF2091C102F0
:1030D00036E0839FC0011124629F800D911D112451
:1030E000811522E0920714F090E080E0825B9C4F13
:1030F0009093530580935205089520915205309185
:103100005305285433404091C102642F70E0C90137
:103110000E944328481B463010F4240F311D21150E
:1031200082E0380710F030E020E0225B3C4F309323
:1031300053052093520508951F93CF93DF93162FC5
:103140008A3039F481E00E941519DF91CF911F91E7
:1031500008958D3011F480E0F6CFC0915205D091E2
:10316000530596E0FE01ABE9B2E001900D929A950D
:10317000E1F7803EB8F086E0FE0111928A95E9F70A
:1031800011111CC0C0915205D091530546E050E08A
:10319000BE018BE992E00E941429892BE9F40E9478
:1031A0007D18D3CFF6E08F9FB001112460507A4F85
:1031B00046E050E0CE010E940B29E2CFE09152059B
:1031C000F09153059F012A5F3F4F2E173F07D1F221
:1031D000808180958193F9CFCE54D340CE0125E0F4
:1031E000969587952A95E1F721E030E0A90102C084
:1031F000440F551F8A95E2F7CA014091C6025091CB
:10320000C702842B952B259645E0D695C7954A9500
:10321000E1F702C0220F331FCA95E2F7822B932BEE
:103220009093C7028093C602BACFCF93382FE09114
:103230005205F0915305EE54F3402091C102622FE4
:1032400070E0CF010E944328281B822F332369F0AE
:1032500066E00E943728C82FC15010F4CF9108951E
:1032600060E080E20E949C18F7CF9F01280F311D7B
:103270002115324018F080E0F0E0E0E08E0F9F2F43
:10328000911D825B9C4F9093530580935205E6CF2E
:10329000FF920F931F93CF93DF93EC01F62EFC0167
:1032A00001900020E9F78F0101501109C017D107E3
:1032B00028F0CDB7DEB7E5E00C94EE286F2D8991AC
:1032C0000E949C18F3CFCF93DF9320915205309149
:1032D00053052E543340A901460F571F4130524029
:1032E00020F060E072E0621B730B4091C6025091C7
:1032F000C702FC01C901620F731FC1E0D0E086174D
:10330000970738F05093C7024093C602DF91CF91E0
:1033100008952491DC01A25BBC4F3C91321781F0EF
:103320002C939C01A5E036952795AA95E1F7DE013F
:1033300002C0AA0FBB1F2A95E2F79D014A2B532B0F
:1033400001963196DCCF8091C502811103C0809136
:10335000C40208950E94FD2060547B428E4F9F4F0F
:1033600060934E0570934F058093500590935105DF
:103370008091C4028111EBCF62E070E08EED95E0A8
:103380000E94DE17892B19F781E08093C402DFCFFA
:103390002F923F925F926F927F928F929F92AF9205
:1033A000BF92CF92DF92EF92FF920F931F93CF9332
:1033B000DF938091C502882369F02091C602309185
:1033C000C7022115310531F08091C30261E070E040
:1033D000882399F0DF91CF911F910F91FF90EF908B
:1033E000DF90CF90BF90AF909F908F907F906F9025
:1033F0005F903F902F9008958F5F082F10E01B0182
:10340000082E02C0220C331C0A94E2F7A9014221C3
:103410005321452B89F39091C20290FD44C08295BF
:10342000880F80768093050198013695279536950B
:10343000279520930801815E80930601109209016F
:1034400024E630E047E050E063E071E088E70E9466
:10345000DD1E892B09F0BECFA80125E0440F551FC2
:103460002A95E1F78091C20280FD2BC0425B5C4F40
:1034700004E610E020E230E060E488E70E94FE1EEF
:10348000892B09F0A7CF0E94A319E101C095D0951F
:103490008091C6029091C702C823D923D093C70256
:1034A000C093C60297CF880F880F880F80930501BD
:1034B00010920801895F8093060183E080930901DF
:1034C000BFCFE1EAF2E080E2DF011D928A95E9F7E1
:1034D000A3ECB1E00FEB11E087ECC82E81E0D82E11
:1034E00097E0592E772473948D91E80129918E01EC
:1034F000240F352F311D225B3C4FE82FF0E0EF55B4
:10350000FD4F90E080E0652C681A872C082E01C0E2
:10351000880C0A94EAF77901A12CE701B9907E01A1
:10352000B820662D6A196770962E062E000C770B50
:10353000DB2D01C0DD0F9A94EAF771956195710951
:103540006770772701C0B6946A95EAF7BD2A608153
:10355000962E9B289082A39468E0A612DECF019657
:1035600031968830910579F6CA16DB0609F0BCCF92
:1035700004E610E020E230E041EA52E07DCF8091A5
:10358000C4029091C502911103C091E0892708956A
:10359000882369F062E070E08CED95E00E94DE1710
:1035A000892B19F08091C40208951092C402809171
:1035B000C402EBCF0E94740608950F931F9380916D
:1035C000C502882309F160E080E00E9466180E942D
:1035D000DA1A0E94C8198091C4028823A9F00E94B7
:1035E000FD2000914E0510914F052091500530911E
:1035F0005105601B710B820B930B6F3F7F4F8F4FF9
:103600009F4710F40E94BF1A1F910F910895CF9306
:10361000DF93EC01FB018281882309F433C1C430BC
:10362000FDE5DF07C0F5CB3F9CE5D90730F49E01EF
:1036300022503C4524313105B0F50E94E9129093A7
:10364000390380933803C1318CE5D80709F4EEC003
:1036500008F069C0C930ECE5DE0709F4D5C0C8F54B
:10366000C5308CE5D80709F4C7C000F5C330ECE5D8
:10367000DE0709F4B9C008F0BBC0C230DC4509F46C
:10368000ADC080913803909139030E94F7120E94D7
:10369000E60C80E008C0C236EDE5DE0771F2C63AFE
:1036A000FDE5DF0751F2DF91CF9108958091380356
:1036B0008062C7309CE5D90709F493C08091380334
:1036C0008061C830DC4508F48CC080913803806488
:1036D00088C0809138038B7FCD30FCE5DF0709F48B
:1036E00080C098F4809138038E7FCB309CE5D90759
:1036F00009F477C0809138038C60CC30DC4508F445
:1037000070C0809138038D7F6CC0809138038F7EAC
:10371000CF30FCE5DF0709F464C008F47BC080917A
:1037200038038F7D5EC0CE3F9CE5D90709F47AC08F
:1037300050F5C531FCE5DF0709F486C098F48091A7
:103740003803837FC3319CE5D90709F44AC008F4E4
:1037500071C00E94E60C90913803892F97FB87F97E
:1037600080583FC0CC3FFCE5DF0709F449C008F0B2
:1037700055C0809139038160CB3FDC4509F081CF92
:10378000809339037ECFC230EDE5DE0709F468C0CF
:10379000A8F4C1158DE5D80709F452C0809139030A
:1037A0008360C130DD4560F380913903982F909597
:1037B00091708E7F892B90FB81F9E2CFC236EDE5C7
:1037C000DE0709F451C0C63AFDE5DF0709F453C02E
:1037D000C330DD4509F055CF80E043C08091380308
:1037E0008160809338034DCF809138038260F9CF98
:1037F000809138038460F5CF809138038860F1CFE1
:10380000809139038260BCCF0E94E60C809138031E
:103810008068E7CF80913803877FE3CF80913903B9
:103820008E7FAECF809139038D7FAACF80913803F0
:103830008F7BD7CF0E94E60C809138038F77D1CF52
:10384000809139038C7F9CCF8091380382FB99272C
:1038500090F921E0922790FB82F990FB83F9C1CF88
:1038600081E00E9484130DCF90913803892F8F7EC1
:1038700094FF8061B6CF90913803892F8E7F90FF9F
:103880008160AFCF81E00FCFCF93DF93EB01863123
:103890009C4511F50E94E6119A81992399F08A7A44
:1038A00091E009F490E09093C802811109C089E287
:1038B0000E94BE110E94271280E0DF91CF910895EF
:1038C00085E3F6CF8091C802811104C089E20E948D
:1038D000C611F0CF85E3FBCF81E0EFCF0F931F93AD
:1038E000CF93DF93C42FD22FFC0182818823C9F0AC
:1038F0004093CB020E94F1209093CA028093C902A8
:1039000080E28C0F883040F4C77081E001C0880FDE
:10391000CA95EAF70E947C0ADF91CF911F910F911F
:1039200008951091CB02141332C08091C902909176
:10393000CA020E940921883C910548F5C0E2CD0FDA
:103940001D17B9F080E2810F883040F4177081E0D4
:1039500001C0880F1A95EAF70E94830AC83048F41C
:1039600081E09D2F977001C0880F9A95EAF70E9419
:103970007C0A802F0E94730AC83070F6D77081E0ED
:1039800001C0880FDA95EAF70E94830AC5CF80E26A
:103990008C0F883008F6C77081E001C0880FCA9587
:1039A000EAF7F2CF0F939C01CB01243F4CE534079B
:1039B00059F1A8F4293DFCE53F0701F12A3D4CE50A
:1039C0003407D1F1283D3C4591F406E221EE41EE69
:1039D00068ED7CE50E946E1C80E00F910895263F03
:1039E000FCE53F07E9F0B0F0273F3C45F9F0FC016A
:1039F0008281882339F11092CB02EFCF07E225EEC6
:103A000045EE69ED7CE5E6CF06E221EE40EE64EF9F
:103A10007CE5E0CF07E225EE44EE65EF7CE5DACF0A
:103A200006E221EE42EE66EF7CE5D4CF07E225EE1A
:103A300046EE67EF7CE5CECF08E221E045EE6AED89
:103A40007CE5C8CF81E0C9CF8091090308959C012E
:103A50003056211540E2340748F0305E211540E130
:103A6000340720F0315C21153F4178F499279C01FF
:103A7000245031092432310578F02752310981E090
:103A80002E30310550F080E008958F3F910579F395
:103A900070F390E080E0EBCF81E008950E94271D55
:103AA00008950E944E1D882381F0E091D202F0E03B
:103AB000EE0FFF1FED52FD4F808191818F3F2FE769
:103AC000920719F001969183808308958F929F92B7
:103AD000AF92BF92CF92DF92EF92FF92CF93C090BE
:103AE000D302D090D4020D2C000CEE08FF082091D8
:103AF0000A0130E0E3EDF2E081E090E03296281731
:103B000039070CF0A7C060910503709106038091FE
:103B10000703909108030E9418214B015C01C0919A
:103B20000A0189EC88169104A104B10414F1809172
:103B3000D20290E0019669E170E00E9457288093DC
:103B4000D202880F991FFC01ED52FD4F11821082A5
:103B50008C2FC83108F087E18F5F80930A010E94A3
:103B6000FD206093050370930603809307039093F1
:103B7000080382E0C816D104E104F1040CF476C015
:103B8000A0E6BAEEA70196010E94B2286B017C0163
:103B900088ECC89F90011124032E000C440B550B98
:103BA000280D391D4A1D5B1DA5E0B0E00E94B2281A
:103BB0009B01AC01C701B6010E946B2869017A0123
:103BC00081EFC816D104E104F1042CF080EFC82E77
:103BD000D12CE12CF12C6091CE027091CF0280911A
:103BE000D0029091D1020E9418214B015C0185E620
:103BF00088169104A104B10484F00E94FD20609312
:103C0000CE027093CF028093D0029093D102809124
:103C100009038093CD02C092CC02C091CD02A09145
:103C2000CC02AC1BBB0BA50194010E94BD2824E66D
:103C300030E040E050E00E948D28C20FC09309039D
:103C4000CF91FF90EF90DF90CF90BF90AF909F907B
:103C50008F90089540815181052E000C660B770BE3
:103C6000C40ED51EE61EF71E019648CFC12CD12CDE
:103C70007601B1CF1092B9008CE08093B80008951E
:103C8000B0E0A0E0E6E4FEE10C94CC28B82EEB0115
:103C90000E94F1206C01EE24E394F12CC431D10593
:103CA00060F025E0E22EF12CCF3FDC0731F0CE01B1
:103CB00064E170E00E9443287B0184EAA82E94E826
:103CC000992E1092BC00A092BC000E94F1208C01A1
:103CD0008091BC0087FF0DC08091B900887F88303B
:103CE00001F18091B900887F8031D9F00FEF1FEF8B
:103CF00009C00E94F120801B910B8E159F0540F397
:103D00000EEF1FEFCF3FDC07E1F2C6010E94092151
:103D10008C179D07B0F2C801CDB7DEB7EBE00C946D
:103D2000E828B092BB009092BC000E94F1208C0168
:103D30008091BC0087FF0AC08091B900887F8831DC
:103D400011F0803499F610E000E0E5CF0E94F120F8
:103D5000801B910B8E159F0558F3D2CF0F931F93A5
:103D6000CF93DF93EB018093BB0084E88093BC008A
:103D70000E94F1208C018091BC0087FF11C020912E
:103D8000B900287F81E090E0283211F490E080E0D3
:103D9000919581959109DF91CF911F910F91089590
:103DA000CF3FDC0741F30E94F120801B910B8C1761
:103DB0009D0708F38EEF9FEFEECFB0E0A0E0E3EEBB
:103DC000FEE10C94CF286B018A017901B9010E94B0
:103DD000401EE6010C0D1D1DC017D10711F097FF05
:103DE00008C024E92093BC00CDB7DEB7E8E00C940E
:103DF000EB28B70189910E94AE1EEECFB0E0A0E0A3
:103E0000E4E0FFE10C94CF28C62F6A017901B801E4
:103E10000E94401E97FD0CC0B8018C2F0E94AE1E60
:103E2000E601EC0CFD1CCE15DF0511F097FF08C074
:103E300024E92093BC00CDB7DEB7E8E00C94EB2872
:103E4000B80189910E94AE1EEECF84E98093BC0038
:103E500008959093C9018093C801089590930F032A
:103E600080930E030895E0910E03F0910F033097B5
:103E700029F00190F081E02D0995089580E00895E2
:103E80000E94331F0895E0910E03F0910F033097C5
:103E900099F020911701222359F02091380327FF30
:103EA00007C0DC012C9111962C93119726E02C93DE
:103EB0000280F381E02D0995089520910C03309143
:103EC0000D032817390771F090930D0380930C03AD
:103ED000E0910E03F0910F03309721F00680F781F7
:103EE000E02D0995089520910A0330910B032817BE
:103EF000390771F090930B0380930A03E0910E034E
:103F0000F0910F03309721F00084F185E02D0995A1
:103F10000895FC01329680911701882321F0809149
:103F200038039EE187FF96E080E0915008F4089501
:103F300021912223D1F38F5FF8CF662301F12091E5
:103F400017012223F1F02091380327FF1AC0462FD2
:103F50004695469546954E3190F4677021E030E0E5
:103F600002C0220F331F6A95E2F7840F911DFC01F6
:103F7000828190E02823392381E0232B69F480E0BB
:103F80000895FC01329608962191261721F0E81732
:103F9000F907D1F7F4CF81E008959C01FC01329636
:103FA0009FEF80E04191461751F09F3F19F4411176
:103FB00001C0982F8F5F8630A9F79F3F09F40895BD
:103FC000290F311D97FD3A95F90162830895FC018F
:103FD000329608962191261303C0DF0111971C9297
:103FE000E817F907B9F70895E62FE695E695E695FF
:103FF000EE3168F4E80FF92FF11D677021E030E031
:1040000001C0220F6A95EAF78281822B828308958C
:10401000E62FE695E695E695EE3170F4E80FF92F78
:10402000F11D677021E030E001C0220F6A95EAF7C8
:10403000209582812823228308952091170122232D
:1040400039F02091380327FF03C00E94F41F089520
:104050000E94CD1F089520911701222339F020914D
:10406000380327FF03C00E94082008950E94E71F1D
:104070000895FC01329680911701882351F08091B8
:10408000380387FF06C08EE1DF011D928A95E9F7AC
:10409000089586E0F9CF08950E944B20089581117C
:1040A00006C081E0809310030E944C20089582E0B6
:1040B000F9CF83E0809310030E944C2008950E9462
:1040C0004F20089581E0809310030E944C200895B2
:1040D0000E9462200895089508950E946C2008951A
:1040E000089508950E946B200895CF930E94702038
:1040F0000E944E170E947120C0E08C2F0E948316F0
:10410000892B31F4CF5FC530C1F780E0CF9108959E
:1041100081E0FCCF85B7806885BF85B7806885BFA3
:1041200008951F921FB61F9211248F939F93AF93F0
:10413000BF9380911103811113C080915405909118
:104140005505A0915605B09157054196A11DB11D89
:104150008093540590935505A0935605B093570549
:10416000BF91AF919F918F911F901FBE1F90189587
:1041700080915C05843031F10E94C60810921103D1
:1041800088E190E020E40FB6F894A8958093600051
:104190000FBE2093600083B7817F846083BF83B7A5
:1041A000816083BF7894889583B78E7F83BF0FB675
:1041B000F894A895809160008861809360001092C7
:1041C00060000FBE08950E94E60C0E94CD0808957D
:1041D00082E084BD93E095BD9AEF97BD80936E0019
:1041E00008952FB7F8948091540590915505A091AA
:1041F0005605B09157052FBF08952FB7F8946091D9
:1042000054057091550580915605909157052FBF23
:1042100008959C014FB7F8948091540590915505ED
:10422000A0915605B09157054FBF821B930B08957F
:10423000CF92DF92EF92FF922FB7F894C09054057F
:10424000D0905505E0905605F09057052FBFA70177
:104250009601261B370B480B590BCA01B901FF9079
:10426000EF90DF90CF90089578941F921FB61F9221
:1042700011248F939F93AF93BF9380915405909196
:104280005505A0915605B09157050196A11DB11D88
:104290008093540590935505A0935605B093570508
:1042A000BF91AF919F918F911F901FBE1F90189546
:1042B00081E08093E00080E28093D8001092C900F2
:1042C0008FE19EE40197F1F700C0000087E090EBDA
:1042D000DC018093650590936605A0936705B09314
:1042E000680588E19CE00FB6F894A895809360007B
:1042F0000FBE90936000FFCF88E19CE00FB6F8946A
:10430000A895809360000FBE90936000FFCF8091CE
:10431000350308950895CF93DF93EC018091170141
:104320008823B1F18091380387FF32C060E282E0D8
:104330008093E9008FEF9091E800815095FD06C0D1
:1043400095ED9A95F1F700008111F5CF8091E80085
:1043500085FF1BC08091170170E050E040E08111A3
:1043600004C050E040E068E070E0CE010E94B0235D
:104370008091E8008E778093E80080E2FE01A5E15D
:10438000B3E001900D928A95E1F7DF91CF91089506
:1043900068E081E0CDCF80931203709314036093A3
:1043A000130380915C05843001F582E08093E9007D
:1043B0008FEF9091E800815095FD06C095ED9A959C
:1043C000F1F700008111F5CF8091E80085FF0DC065
:1043D00050E040E063E070E082E193E00E94B023AF
:1043E0008091E8008E778093E8000895BC0184E016
:1043F0000E94CB210895BC0183E00E94CB21089547
:10440000089580915B05811109C00E9440250E949A
:104410009D258091E20084608093E20008951092CF
:104420005B0508950E94622008956091580581E01F
:10443000611101C080E00E945920089590915C05AF
:1044400081E0943009F080E0609158050E945F207F
:10445000089542E061EC81E00E94BC2442E261ECFC
:1044600082E00E94BC2490915C0581E0943009F0C8
:1044700080E0609158050E944F20089580915E056C
:10448000833009F461C030F48130D1F1823009F415
:104490009EC008958A3009F48AC08B3009F46FC039
:1044A000893009F050C080915D05813209F04BC020
:1044B0008091610590916205029708F044C0809157
:1044C000E800877F8093E8008091E80082FF37C092
:1044D0009091F3008091F200029731F48091F10005
:1044E000813011F0863021F48091F1008093350302
:1044F0008091E8008B778093E8000E94F02423C02D
:1045000080915D05813AF9F48091E800877F80937E
:10451000E8008091610590916205892B61F460E269
:1045200085E193E070E00E94FF238091E8008B77A3
:104530008093E800089560E090E080E0F3CF809100
:104540005C058111C1CF089580915D05813AD9F74D
:104550008091610590916205892BA9F78091E8000F
:10456000877F8093E8008091E80080FFFCCF8091F6
:1045700017018093F1008091E8008E77BCCF809185
:104580005D05813201F78091610590916205892B6B
:10459000D1F68091E800877F8093E8000E94F024A4
:1045A00080915F05809317010E94E60C0895809129
:1045B0005D05813241F68091E800877F8093E800B5
:1045C0000E94F024809160058093360308958091C5
:1045D0005D05813A09F0B7CF8091E800877F80932D
:1045E000E8008091E80080FFFCCF80913603C1CFC6
:1045F00084B7877F84BF0FB6F894A8958091600038
:10460000886180936000109260000FBE80E890E0A7
:104610000FB6F89480936100909361000FBE0E94E2
:10462000682008950E9440250E949D25E2EEF0E05A
:1046300080818460808378940E941C2808958BE098
:1046400091E00E942E1F089580915C05853031F421
:1046500080915C05853019F00E94E32008950E9446
:10466000B82080915A05882399F30E9475208823E9
:1046700079F30E949A230E94E60CEACF08950E94E3
:1046800042230895292F33272330310519F168F487
:104690002130310509F444C02230310509F445C008
:1046A00090E080E030E020E025C02132310549F182
:1046B00022323105A9F780E490E02CE23CE061155C
:1046C0007105C1F08DE690E02FEB3BE061307105A4
:1046D00089F0E6CF99278130910581F0009729F084
:1046E0000297F1F6E0E4FBE002C0EEE6FBE0849125
:1046F00090E09F01FA01318320830895EAE5FBE011
:10470000F6CF89E090E024E83BE06115710591F374
:1047100089E090E02DE93BE06130710559F3C0CFAD
:1047200082E190E02DEA3BE0E5CF8BE390E022E7E9
:104730003BE0E0CF80E189BD82E189BD09B400FEA4
:10474000FDCF8091D8008F7D8093D8008091E000CC
:1047500082608093E0008091E00081FDFCCF0895AD
:10476000AF92BF92CF92DF92FF920F931F93CF939E
:10477000DF936C01EB018A010E940F25F82E811155
:1047800023C00115110539F0F80180819181C81B02
:10479000D90BC80ED91EB12CA12C2097A9F080915D
:1047A000E80085FD22C08091E8008E778093E800C4
:1047B00001151105A1F0F80180819181A80EB91EA3
:1047C000B182A08285E0F82E8F2DDF91CF911F91CD
:1047D0000F91FF90DF90CF90BF90AF9008950E940F
:1047E0000F258823D1F2F82EEFCFF60181916F01CA
:1047F0008093F1002197FFEFAF1ABF0ACECFFC01E3
:10480000809163059091640586179707A0F0611564
:10481000710529F49091E8009E779093E80090E06C
:104820006115710551F4911108C08091E80082FF73
:1048300034C080E00895BC01F2CF80915C058823EC
:10484000C1F18530C1F18091E80083FD30C08091D5
:10485000E80082FDEACF8091E80080FFE1CF8091FF
:10486000F3002091F200382F6115710519F02830FE
:10487000310558F091E02830310509F090E02091A1
:10488000E8002E772093E800CBCF81918093F10050
:10489000615071092F5F3F4FE7CF80915C058823FE
:1048A00041F0853041F08091E80083FFBECF81E088
:1048B000089582E0089583E00895FC0180916305E6
:1048C0009091640586179707A0F06115710529F48A
:1048D0008091E8008E778093E80090E06115710583
:1048E00051F4911108C08091E80082FF35C080E04A
:1048F0000895BC01F2CF80915C058823C9F1853011
:10490000C9F18091E80083FD31C08091E80082FD0B
:10491000EACF8091E80080FFE1CF8091F300209101
:10492000F200382F6115710519F02830310558F063
:1049300091E02830310509F090E08091E8008E7711
:104940008093E800CBCF84918093F1003196615041
:1049500071092F5F3F4FE6CF80915C05882341F0BE
:10496000853041F08091E80083FFBDCF81E008955C
:1049700082E0089583E00895982F973028F08F7093
:104980008093E90081E008959093E900242F762F29
:1049900050E0981731F07091EC002091ED005091AB
:1049A000F00021FD02C09F5FE8CF3091EB003E7F19
:1049B0003093EB003091ED003D7F3093ED0030916E
:1049C000EB0031603093EB007093EC002093ED002E
:1049D0005093F0002091EE0027FDE5CF80E0089590
:1049E00080915D0587FF13C08091E80082FF06C0BB
:1049F0008091E8008B778093E80004C080915C058B
:104A00008111F2CF089580915C058823D9F38091BC
:104A1000E80080FFF8CF8091E8008E77ECCF2091FE
:104A2000E4003091E50095E6A9012091EC00822F89
:104A3000817020FF06C08091E80080FF06C080E002
:104A400008952091E80022FD1AC080915C0588231A
:104A500089F0853089F08091EB0085FD0FC02091B1
:104A6000E4003091E50042175307F9F29150E1F666
:104A700084E0089582E0089583E0089581E0089538
:104A80000E94AF250E94B725E0EEF0E080818160B2
:104A90008083E8EDF0E080818F77808319BCA7EDFB
:104AA000B0E08C918E7F8C9380818F7E808310927A
:104AB0005B0508950F931F93CF93DF930E94AF255B
:104AC0000E94B725C8EDD0E088818F7788838881E0
:104AD0008068888388818F7D888319BC10925C05EB
:104AE0001092580510925A051092590500EE10E0E8
:104AF000F80180818B7F808388818160888342E098
:104B000060E080E00E94BC24E1EEF0E080818E7FD6
:104B10008083E2EEF0E08081816080838081886024
:104B20008083F80180818E7F808388818061888383
:104B3000DF91CF911F910F910895E8EDF0E0808112
:104B40008F7E8083E7EDF0E080818160808384E068
:104B500082BF81E080935B050E945A250895E8EDAD
:104B6000F0E080818E7F80831092E20008951092A1
:104B7000DA001092E10008951F920F920FB60F9283
:104B800011242F933F934F935F936F937F938F9352
:104B90009F93AF93BF93EF93FF938091E10082FFC8
:104BA0000BC08091E20082FF07C08091E1008B7F03
:104BB0008093E1000E941B288091DA0080FF19C0D9
:104BC0008091D80080FF15C08091DA008E7F80939D
:104BD000DA008091D90080FF96C080E189BD82E132
:104BE00089BD09B400FEFDCF81E080935C050E9481
:104BF00001228091E10080FF19C08091E20080FFD6
:104C000015C08091E2008E7F8093E2008091E200E7
:104C100080618093E2008091D80080628093D80008
:104C200019BC85E080935C050E9415228091E1000B
:104C300084FF2BC08091E20084FF27C080E189BD02
:104C400082E189BD89B5982F917080FFFBCF80915B
:104C5000D8008F7D8093D8008091E1008F7E809373
:104C6000E1008091E2008F7E8093E2008091E2007B
:104C700081608093E20080915805882309F449C03F
:104C800084E080935C050E941E228091E10083FFF6
:104C900029C08091E20083FF25C08091E100877FD9
:104CA0008093E10082E080935C051092580580912A
:104CB000E1008E7F8093E1008091E2008E7F8093FF
:104CC000E2008091E20080618093E20042E060E0D7
:104CD00080E00E94BC248091F00088608093F00006
:104CE0000E941222FF91EF91BF91AF919F918F91FE
:104CF0007F916F915F914F913F912F910F900FBED8
:104D00000F901F90189519BC10925C050E940F22FD
:104D100070CF8091E30087FD93E090935C05B3CF63
:104D20001F920F920FB60F9211242F933F934F9320
:104D30005F936F937F938F939F93AF93BF93CF9323
:104D4000DF93EF93FF93D091E900DF708091EC0047
:104D5000C82FC17080FDC0E81092E9008091F0007A
:104D6000877F8093F00078940E94D4261092E90007
:104D70008091F00088608093F000CD2BCF70C093BD
:104D8000E900FF91EF91DF91CF91BF91AF919F919A
:104D90008F917F916F915F914F913F912F910F90E4
:104DA0000FBE0F901F901895AAE2B0E0EAEDF6E270
:104DB0000C94D4288DE595E02091F100FC0121931D
:104DC000CF01F5E085369F07B9F70E943E2280911A
:104DD000E80083FF1EC180915D0590915E059A30C9
:104DE00008F017C1E92FF0E0EF58F64D0C94AC280D
:104DF000803899F0823809F00CC1809161058F707C
:104E0000873008F006C18093E9008091EB0085FBB4
:104E1000882780F91092E90006C080915905909189
:104E20005A05911182609091E800977F9093E80075
:104E30008093F1001092F1008091E8008E77E5C038
:104E4000882309F4D3C0823009F0E3C080915F0564
:104E50008111D6C0809161058F702FEF280F263009
:104E600008F0D7C08093E9002091EB0020FFC8C074
:104E7000933031F48091EB0080628093EB00C0C0EE
:104E80009091EB0090619093EB0021E030E001C045
:104E9000220F8A95EAF72093EA001092EA008091A7
:104EA000EB008860EACF8111B4C010915F051F77D5
:104EB0008091E3008078812B8093E3008091E8006B
:104EC000877F8093E8000E94F0248091E80080FFB3
:104ED000FCCF8091E30080688093E30082E01111B1
:104EE00083E080935C0595C08058823008F091C0C3
:104EF00080915F05909160058C3D23E09207A1F5BC
:104F000083E08A838AE289834FB7F894DE0113969F
:104F100020E03EE051E2E32FF0E050935700E491AF
:104F200020FF03C0E295EF703F5FEF708E2F90E09F
:104F3000EA30C0F0C7968D939D932F5F243159F7C7
:104F40004FBF8091E800877F8093E8006AE270E0BD
:104F5000CE0101960E94FF238091E8008B77809319
:104F6000E80057C0C096E7CF609161057091620577
:104F7000AE014F5F5F4F0E943F23BC01892B09F4B4
:104F800048C09091E800977F9093E80089819A81CA
:104F90000E945D24E1CF8038E1F58091E800877FB1
:104FA0008093E800809158058093F10045CF8111EE
:104FB00030C090915F05923060F58091E800877F66
:104FC0008093E800909358050E94F0248091580542
:104FD000882311F084E005C08091E30087FDFACFBB
:104FE00081E080935C050E94292213C080915F05B7
:104FF000813079F481E0933009F080E080935A05A4
:105000001092E9008091E800877F8093E8000E9479
:10501000F0248091E80083FF0AC08091E800877F38
:105020008093E8008091EB0080628093EB00AA9669
:10503000E3E00C94F0280895CF9380915C058823D9
:10504000A1F0C091E900CF709091EC00892F8170A0
:1050500090FD80E8C82B1092E9008091E80083FD64
:105060000E94D426CF70C093E900CF910895991B78
:1050700079E004C0991F961708F0961B881F7A954F
:10508000C9F780950895AA1BBB1B51E107C0AA1F51
:10509000BB1FA617B70710F0A61BB70B881F991FD9
:1050A0005A95A9F780959095BC01CD01089597FB7D
:1050B000072E16F4009407D077FD09D00E944328EC
:1050C00007FC05D03EF4909581959F4F089570950B
:1050D00061957F4F0895A1E21A2EAA1BBB1BFD010B
:1050E0000DC0AA1FBB1FEE1FFF1FA217B307E407C7
:1050F000F50720F0A21BB30BE40BF50B661F771F1F
:10510000881F991F1A9469F76095709580959095FE
:105110009B01AC01BD01CF010895052E97FB1EF444
:1051200000940E94A42857FD07D00E946B2807FC1A
:1051300003D04EF40C94A4285095409530952195B9
:105140003F4F4F4F5F4F08959095809570956195B3
:105150007F4F8F4F9F4F0895EE0FFF1F0590F491E3
:10516000E02D09940E94FC28A59F900DB49F900DFE
:10517000A49F800D911D11240895B7FF0C94B228AF
:105180000E94B228821B930B08952F923F924F9258
:105190005F926F927F928F929F92AF92BF92CF92C7
:1051A000DF92EF92FF920F931F93CF93DF93CDB7D0
:1051B000DEB7CA1BDB0B0FB6F894DEBF0FBECDBF48
:1051C00009942A88398848885F846E847D848C8419
:1051D0009B84AA84B984C884DF80EE80FD800C8122
:1051E0001B81AA81B981CE0FD11D0FB6F894DEBF05
:1051F0000FBECDBFED010895A29FB001B39FC001C6
:10520000A39F700D811D1124911DB29F700D811DF2
:105210001124911D0895FB01DC0102C005900D923F
:1052200041505040D8F70895FB01DC0104C08D9136
:105230000190801921F441505040C8F7881B990B08
:105240000895F999FECF92BD81BDF89A992780B54E
:105250000895A8E1B0E042E050E00C945529262FD3
:10526000F999FECF92BD81BDF89A019700B402165C
:1052700039F01FBA20BD0FB6F894FA9AF99A0FBE0A
:1052800008950396272F0E9430290E942F29252F49
:105290000E943029242F0C9430290196272F0E9438
:1052A00030290C942F29DC01CB01FC01F999FECFA8
:1052B00006C0F2BDE1BDF89A319600B40D9241509E
:1052C0005040B8F70895F894FFCFC50AC50AF60A0A
:1052D000F60A830B250B250B250B9F0B2B0C3A0C89
:1052E0003A0CF82620270928202709285327742755
:0652F0000928CB27D72797
:1052F6000163020021007F2200030187218B210028
:1053060022FB21F6218A2101515752545900465554
:105316004E4300554E444546004C415945520042C5
:10532600617365200046756E6300556E64656600A0
:105336004350534C4B00202020202000E200E9007F
:10534600EA00B500B600B700CD008301CC008A01A3
:105356009201940121022302240225022602270239
:105366002A02B300B4006F007000818283E200E974
:1053760000EA00B500B600B700CD008301CC008A74
:10538600019201940121022302240225022602270A
:10539600022A02B300B4006F0070008182839392E8
:1053A600946697343331F7F6F5F4C6353767360029
:0853B60008101818100800008F
:00000001FF
